{
  "contractName": "ContentStorage",
  "abi": [
    {
      "constant": false,
      "inputs": [
        {
          "name": "_hashCode",
          "type": "string"
        },
        {
          "name": "_title",
          "type": "string"
        },
        {
          "name": "_description",
          "type": "string"
        },
        {
          "name": "_usrAddress",
          "type": "address"
        }
      ],
      "name": "addContent",
      "outputs": [],
      "payable": false,
      "stateMutability": "nonpayable",
      "type": "function"
    },
    {
      "constant": true,
      "inputs": [],
      "name": "inspect",
      "outputs": [
        {
          "name": "",
          "type": "uint256"
        }
      ],
      "payable": false,
      "stateMutability": "view",
      "type": "function"
    },
    {
      "constant": true,
      "inputs": [],
      "name": "getHash",
      "outputs": [
        {
          "name": "",
          "type": "string[]"
        }
      ],
      "payable": false,
      "stateMutability": "view",
      "type": "function"
    },
    {
      "constant": true,
      "inputs": [],
      "name": "getTitle",
      "outputs": [
        {
          "name": "",
          "type": "string[]"
        }
      ],
      "payable": false,
      "stateMutability": "view",
      "type": "function"
    },
    {
      "constant": true,
      "inputs": [],
      "name": "getDes",
      "outputs": [
        {
          "name": "",
          "type": "string[]"
        }
      ],
      "payable": false,
      "stateMutability": "view",
      "type": "function"
    },
    {
      "constant": true,
      "inputs": [],
      "name": "getAdd",
      "outputs": [
        {
          "name": "",
          "type": "address[]"
        }
      ],
      "payable": false,
      "stateMutability": "view",
      "type": "function"
    }
  ],
  "bytecode": "0x608060405234801561001057600080fd5b50610ac6806100206000396000f3fe608060405234801561001057600080fd5b50600436106100625760003560e01c80633506732114610067578063a44c918014610085578063c9447bd7146100a3578063d13319c4146100bf578063d14d42ba146100dd578063ff3c1a8f146100fb575b600080fd5b61006f610119565b60405161007c91906108c8565b60405180910390f35b61008d610202565b60405161009a91906108ea565b60405180910390f35b6100bd60048036036100b891908101906106a5565b61020e565b005b6100c7610337565b6040516100d491906108c8565b60405180910390f35b6100e5610420565b6040516100f291906108a6565b60405180910390f35b6101036104ae565b60405161011091906108c8565b60405180910390f35b60606002805480602002602001604051908101604052809291908181526020016000905b828210156101f9578382906000526020600020018054600181600116156101000203166002900480601f0160208091040260200160405190810160405280929190818152602001828054600181600116156101000203166002900480156101e55780601f106101ba576101008083540402835291602001916101e5565b820191906000526020600020905b8154815290600101906020018083116101c857829003601f168201915b50505050508152602001906001019061013d565b50505050905090565b60008080549050905090565b600084908060018154018082558091505090600182039060005260206000200160009091929091909150908051906020019061024b929190610597565b5050600183908060018154018082558091505090600182039060005260206000200160009091929091909150908051906020019061028a929190610597565b505060028290806001815401808255809150509060018203906000526020600020016000909192909190915090805190602001906102c9929190610597565b505060038190806001815401808255809150509060018203906000526020600020016000909192909190916101000a81548173ffffffffffffffffffffffffffffffffffffffff021916908373ffffffffffffffffffffffffffffffffffffffff1602179055505050505050565b60606000805480602002602001604051908101604052809291908181526020016000905b82821015610417578382906000526020600020018054600181600116156101000203166002900480601f0160208091040260200160405190810160405280929190818152602001828054600181600116156101000203166002900480156104035780601f106103d857610100808354040283529160200191610403565b820191906000526020600020905b8154815290600101906020018083116103e657829003601f168201915b50505050508152602001906001019061035b565b50505050905090565b606060038054806020026020016040519081016040528092919081815260200182805480156104a457602002820191906000526020600020905b8160009054906101000a900473ffffffffffffffffffffffffffffffffffffffff1673ffffffffffffffffffffffffffffffffffffffff168152602001906001019080831161045a575b5050505050905090565b60606001805480602002602001604051908101604052809291908181526020016000905b8282101561058e578382906000526020600020018054600181600116156101000203166002900480601f01602080910402602001604051908101604052809291908181526020018280546001816001161561010002031660029004801561057a5780601f1061054f5761010080835404028352916020019161057a565b820191906000526020600020905b81548152906001019060200180831161055d57829003601f168201915b5050505050815260200190600101906104d2565b50505050905090565b828054600181600116156101000203166002900490600052602060002090601f016020900481019282601f106105d857805160ff1916838001178555610606565b82800160010185558215610606579182015b828111156106055782518255916020019190600101906105ea565b5b5090506106139190610617565b5090565b61063991905b8082111561063557600081600090555060010161061d565b5090565b90565b60008135905061064b81610a75565b92915050565b600082601f83011261066257600080fd5b813561067561067082610932565b610905565b9150808252602083016020830185838301111561069157600080fd5b61069c838284610a22565b50505092915050565b600080600080608085870312156106bb57600080fd5b600085013567ffffffffffffffff8111156106d557600080fd5b6106e187828801610651565b945050602085013567ffffffffffffffff8111156106fe57600080fd5b61070a87828801610651565b935050604085013567ffffffffffffffff81111561072757600080fd5b61073387828801610651565b92505060606107448782880161063c565b91505092959194509250565b600061075c838361077c565b60208301905092915050565b6000610774838361085e565b905092915050565b610785816109e6565b82525050565b600061079682610978565b6107a081856109b3565b93506107ab8361095e565b8060005b838110156107dc5781516107c38882610750565b97506107ce83610999565b9250506001810190506107af565b5085935050505092915050565b60006107f482610983565b6107fe81856109c4565b9350836020820285016108108561096b565b8060005b8581101561084c578484038952815161082d8582610768565b9450610838836109a6565b925060208a01995050600181019050610814565b50829750879550505050505092915050565b60006108698261098e565b61087381856109d5565b9350610883818560208601610a31565b61088c81610a64565b840191505092915050565b6108a081610a18565b82525050565b600060208201905081810360008301526108c0818461078b565b905092915050565b600060208201905081810360008301526108e281846107e9565b905092915050565b60006020820190506108ff6000830184610897565b92915050565b6000604051905081810181811067ffffffffffffffff8211171561092857600080fd5b8060405250919050565b600067ffffffffffffffff82111561094957600080fd5b601f19601f8301169050602081019050919050565b6000602082019050919050565b6000602082019050919050565b600081519050919050565b600081519050919050565b600081519050919050565b6000602082019050919050565b6000602082019050919050565b600082825260208201905092915050565b600082825260208201905092915050565b600082825260208201905092915050565b60006109f1826109f8565b9050919050565b600073ffffffffffffffffffffffffffffffffffffffff82169050919050565b6000819050919050565b82818337600083830152505050565b60005b83811015610a4f578082015181840152602081019050610a34565b83811115610a5e576000848401525b50505050565b6000601f19601f8301169050919050565b610a7e816109e6565b8114610a8957600080fd5b5056fea265627a7a72305820d10ababf9f04ea603267e4e1fb5518d0c198dbb76a4e10141c765f0b82a6152f6c6578706572696d656e74616cf50037",
  "source": "pragma solidity ^0.5.0;\r\npragma experimental ABIEncoderV2;\r\ncontract ContentStorage {\r\n    string[] hashCode;\r\n    string[] title;\r\n    string[] description;\r\n    address[] account;\r\n    function addContent(string memory _hashCode, string memory _title, string memory _description, address _usrAddress) public{\r\n        hashCode.push(_hashCode);\r\n        title.push(_title);\r\n        description.push(_description);\r\n        account.push(_usrAddress);\r\n    }\r\n    function inspect() public view returns (uint) {\r\n        return hashCode.length;\r\n    }\r\n    function getHash() public view returns (string[] memory)\r\n    {\r\n        return hashCode;\r\n    }\r\n    function getTitle() public view returns (string[] memory )\r\n    {\r\n        return title;\r\n    }\r\n    function getDes() public view returns (string[] memory )\r\n    {\r\n        return description;\r\n    }\r\n    function getAdd() public view returns (address[] memory )\r\n    {\r\n        return account;\r\n    }\r\n}",
  "sourcePath": "D:/project/intern/ipfs-test-1/contracts/ContentStorage.sol",
  "compiler": {
    "name": "solc",
    "version": "0.5.8+commit.23d335f2.Emscripten.clang"
  },
  "schemaVersion": "3.0.16",
  "updatedAt": "2019-11-14T11:39:31.237Z",
  "devdoc": {
    "methods": {}
  },
  "userdoc": {
    "methods": {}
  }
}